{
  "_format": "hh-sol-artifact-1",
  "contractName": "CompanyLotteries",
  "sourceName": "contracts/CompanyLotteries.sol",
  "abi": [
    {
      "inputs": [],
      "stateMutability": "nonpayable",
      "type": "constructor"
    },
    {
      "inputs": [
        {
          "internalType": "address",
          "name": "owner",
          "type": "address"
        }
      ],
      "name": "OwnableInvalidOwner",
      "type": "error"
    },
    {
      "inputs": [
        {
          "internalType": "address",
          "name": "account",
          "type": "address"
        }
      ],
      "name": "OwnableUnauthorizedAccount",
      "type": "error"
    },
    {
      "anonymous": false,
      "inputs": [
        {
          "indexed": true,
          "internalType": "uint256",
          "name": "lottery_no",
          "type": "uint256"
        }
      ],
      "name": "LotteryCreated",
      "type": "event"
    },
    {
      "anonymous": false,
      "inputs": [
        {
          "indexed": true,
          "internalType": "address",
          "name": "previousOwner",
          "type": "address"
        },
        {
          "indexed": true,
          "internalType": "address",
          "name": "newOwner",
          "type": "address"
        }
      ],
      "name": "OwnershipTransferred",
      "type": "event"
    },
    {
      "anonymous": false,
      "inputs": [
        {
          "indexed": true,
          "internalType": "uint256",
          "name": "lottery_no",
          "type": "uint256"
        },
        {
          "indexed": false,
          "internalType": "uint256",
          "name": "sticketnoNo",
          "type": "uint256"
        },
        {
          "indexed": true,
          "internalType": "address",
          "name": "buyer",
          "type": "address"
        },
        {
          "indexed": false,
          "internalType": "uint256",
          "name": "quantity",
          "type": "uint256"
        }
      ],
      "name": "TicketPurchased",
      "type": "event"
    },
    {
      "anonymous": false,
      "inputs": [
        {
          "indexed": true,
          "internalType": "uint256",
          "name": "lottery_no",
          "type": "uint256"
        },
        {
          "indexed": false,
          "internalType": "uint256",
          "name": "winningTicket",
          "type": "uint256"
        }
      ],
      "name": "WinnersAnnounced",
      "type": "event"
    },
    {
      "anonymous": false,
      "inputs": [
        {
          "indexed": true,
          "internalType": "uint256",
          "name": "lottery_no",
          "type": "uint256"
        },
        {
          "indexed": true,
          "internalType": "address",
          "name": "winner",
          "type": "address"
        },
        {
          "indexed": false,
          "internalType": "uint256",
          "name": "amount",
          "type": "uint256"
        }
      ],
      "name": "WinningsClaimed",
      "type": "event"
    },
    {
      "inputs": [
        {
          "internalType": "uint256",
          "name": "lottery_no",
          "type": "uint256"
        },
        {
          "internalType": "uint256",
          "name": "quantity",
          "type": "uint256"
        },
        {
          "internalType": "bytes32",
          "name": "hash_rnd_number",
          "type": "bytes32"
        }
      ],
      "name": "buyTicketTx",
      "outputs": [
        {
          "internalType": "uint256",
          "name": "sticketno",
          "type": "uint256"
        }
      ],
      "stateMutability": "nonpayable",
      "type": "function"
    },
    {
      "inputs": [
        {
          "internalType": "address",
          "name": "addr",
          "type": "address"
        },
        {
          "internalType": "uint256",
          "name": "lottery_no",
          "type": "uint256"
        },
        {
          "internalType": "uint256",
          "name": "ticketNo",
          "type": "uint256"
        }
      ],
      "name": "checkIfAddrTicketWon",
      "outputs": [
        {
          "internalType": "bool",
          "name": "won",
          "type": "bool"
        }
      ],
      "stateMutability": "view",
      "type": "function"
    },
    {
      "inputs": [
        {
          "internalType": "uint256",
          "name": "lottery_no",
          "type": "uint256"
        },
        {
          "internalType": "uint256",
          "name": "ticketNo",
          "type": "uint256"
        }
      ],
      "name": "checkIfMyTicketWon",
      "outputs": [
        {
          "internalType": "bool",
          "name": "won",
          "type": "bool"
        }
      ],
      "stateMutability": "view",
      "type": "function"
    },
    {
      "inputs": [
        {
          "internalType": "uint256",
          "name": "unixEnd",
          "type": "uint256"
        },
        {
          "internalType": "uint256",
          "name": "nooftickets",
          "type": "uint256"
        },
        {
          "internalType": "uint256",
          "name": "noofwinners",
          "type": "uint256"
        },
        {
          "internalType": "uint256",
          "name": "minpercentage",
          "type": "uint256"
        },
        {
          "internalType": "uint256",
          "name": "ticketprice",
          "type": "uint256"
        },
        {
          "internalType": "bytes32",
          "name": "htmlhash",
          "type": "bytes32"
        },
        {
          "internalType": "string",
          "name": "url",
          "type": "string"
        }
      ],
      "name": "createLottery",
      "outputs": [
        {
          "internalType": "uint256",
          "name": "lottery_no",
          "type": "uint256"
        }
      ],
      "stateMutability": "nonpayable",
      "type": "function"
    },
    {
      "inputs": [],
      "name": "getCurrentLotteryNo",
      "outputs": [
        {
          "internalType": "uint256",
          "name": "lottery_no",
          "type": "uint256"
        }
      ],
      "stateMutability": "view",
      "type": "function"
    },
    {
      "inputs": [
        {
          "internalType": "uint256",
          "name": "i",
          "type": "uint256"
        },
        {
          "internalType": "uint256",
          "name": "lottery_no",
          "type": "uint256"
        }
      ],
      "name": "getIthPurchasedTicketTx",
      "outputs": [
        {
          "internalType": "uint256",
          "name": "sticketno",
          "type": "uint256"
        },
        {
          "internalType": "uint256",
          "name": "quantity",
          "type": "uint256"
        }
      ],
      "stateMutability": "view",
      "type": "function"
    },
    {
      "inputs": [
        {
          "internalType": "uint256",
          "name": "lottery_no",
          "type": "uint256"
        },
        {
          "internalType": "uint256",
          "name": "i",
          "type": "uint256"
        }
      ],
      "name": "getIthWinningTicket",
      "outputs": [
        {
          "internalType": "uint256",
          "name": "ticketNo",
          "type": "uint256"
        }
      ],
      "stateMutability": "view",
      "type": "function"
    },
    {
      "inputs": [
        {
          "internalType": "uint256",
          "name": "lottery_no",
          "type": "uint256"
        }
      ],
      "name": "getLotteryInfo",
      "outputs": [
        {
          "internalType": "uint256",
          "name": "unixBeg",
          "type": "uint256"
        },
        {
          "internalType": "uint256",
          "name": "nooftickets",
          "type": "uint256"
        },
        {
          "internalType": "uint256",
          "name": "noofwinners",
          "type": "uint256"
        },
        {
          "internalType": "uint256",
          "name": "minpercentage",
          "type": "uint256"
        },
        {
          "internalType": "uint256",
          "name": "ticketprice",
          "type": "uint256"
        }
      ],
      "stateMutability": "nonpayable",
      "type": "function"
    },
    {
      "inputs": [
        {
          "internalType": "uint256",
          "name": "lottery_no",
          "type": "uint256"
        }
      ],
      "name": "getLotterySales",
      "outputs": [
        {
          "internalType": "uint256",
          "name": "numSold",
          "type": "uint256"
        }
      ],
      "stateMutability": "nonpayable",
      "type": "function"
    },
    {
      "inputs": [
        {
          "internalType": "uint256",
          "name": "lottery_no",
          "type": "uint256"
        }
      ],
      "name": "getLotteryURL",
      "outputs": [
        {
          "internalType": "bytes32",
          "name": "htmlhash",
          "type": "bytes32"
        },
        {
          "internalType": "string",
          "name": "url",
          "type": "string"
        }
      ],
      "stateMutability": "nonpayable",
      "type": "function"
    },
    {
      "inputs": [
        {
          "internalType": "uint256",
          "name": "lottery_no",
          "type": "uint256"
        }
      ],
      "name": "getNumPurchaseTxs",
      "outputs": [
        {
          "internalType": "uint256",
          "name": "numPurchaseTxs",
          "type": "uint256"
        }
      ],
      "stateMutability": "view",
      "type": "function"
    },
    {
      "inputs": [
        {
          "internalType": "uint256",
          "name": "lottery_no",
          "type": "uint256"
        }
      ],
      "name": "getPaymentToken",
      "outputs": [
        {
          "internalType": "address",
          "name": "erctokenaddr",
          "type": "address"
        }
      ],
      "stateMutability": "nonpayable",
      "type": "function"
    },
    {
      "inputs": [
        {
          "internalType": "uint256",
          "name": "lottery_no",
          "type": "uint256"
        }
      ],
      "name": "getStartTime",
      "outputs": [
        {
          "internalType": "uint256",
          "name": "",
          "type": "uint256"
        }
      ],
      "stateMutability": "view",
      "type": "function"
    },
    {
      "inputs": [
        {
          "internalType": "uint256",
          "name": "rnd",
          "type": "uint256"
        }
      ],
      "name": "get_hashedrnd",
      "outputs": [
        {
          "internalType": "bytes32",
          "name": "",
          "type": "bytes32"
        }
      ],
      "stateMutability": "view",
      "type": "function"
    },
    {
      "inputs": [
        {
          "internalType": "uint256",
          "name": "",
          "type": "uint256"
        }
      ],
      "name": "lotteries",
      "outputs": [
        {
          "components": [
            {
              "internalType": "uint256",
              "name": "startTime",
              "type": "uint256"
            },
            {
              "internalType": "uint256",
              "name": "unixEnd",
              "type": "uint256"
            },
            {
              "internalType": "uint256",
              "name": "totalTickets",
              "type": "uint256"
            },
            {
              "internalType": "uint256",
              "name": "winnersCount",
              "type": "uint256"
            },
            {
              "internalType": "uint256",
              "name": "minpercentage",
              "type": "uint256"
            },
            {
              "internalType": "uint256",
              "name": "ticketprice",
              "type": "uint256"
            },
            {
              "internalType": "contract IERC20",
              "name": "paymentToken",
              "type": "address"
            },
            {
              "internalType": "bytes32",
              "name": "htmlhash",
              "type": "bytes32"
            },
            {
              "internalType": "string",
              "name": "url",
              "type": "string"
            }
          ],
          "internalType": "struct CompanyLotteries.LotteryDetails",
          "name": "details",
          "type": "tuple"
        },
        {
          "components": [
            {
              "internalType": "bool",
              "name": "isCancelled",
              "type": "bool"
            },
            {
              "internalType": "uint256",
              "name": "ticketsSold",
              "type": "uint256"
            },
            {
              "internalType": "uint256",
              "name": "cumulativeRandomness",
              "type": "uint256"
            },
            {
              "components": [
                {
                  "internalType": "address",
                  "name": "buyer",
                  "type": "address"
                },
                {
                  "internalType": "uint256",
                  "name": "ticket_no",
                  "type": "uint256"
                },
                {
                  "internalType": "bytes32",
                  "name": "hashedrnd_number",
                  "type": "bytes32"
                },
                {
                  "internalType": "bool",
                  "name": "isRefunded",
                  "type": "bool"
                },
                {
                  "internalType": "uint256",
                  "name": "quantity",
                  "type": "uint256"
                },
                {
                  "internalType": "bool",
                  "name": "isRevealed",
                  "type": "bool"
                }
              ],
              "internalType": "struct CompanyLotteries.Ticket[]",
              "name": "tickets",
              "type": "tuple[]"
            },
            {
              "components": [
                {
                  "internalType": "address",
                  "name": "buyer",
                  "type": "address"
                },
                {
                  "internalType": "uint256",
                  "name": "ticket_no",
                  "type": "uint256"
                },
                {
                  "internalType": "bytes32",
                  "name": "hashedrnd_number",
                  "type": "bytes32"
                },
                {
                  "internalType": "bool",
                  "name": "isRefunded",
                  "type": "bool"
                },
                {
                  "internalType": "uint256",
                  "name": "quantity",
                  "type": "uint256"
                },
                {
                  "internalType": "bool",
                  "name": "isRevealed",
                  "type": "bool"
                }
              ],
              "internalType": "struct CompanyLotteries.Ticket[]",
              "name": "revealedTickets",
              "type": "tuple[]"
            },
            {
              "components": [
                {
                  "internalType": "address",
                  "name": "buyer",
                  "type": "address"
                },
                {
                  "internalType": "uint256",
                  "name": "ticket_no",
                  "type": "uint256"
                },
                {
                  "internalType": "bytes32",
                  "name": "hashedrnd_number",
                  "type": "bytes32"
                },
                {
                  "internalType": "bool",
                  "name": "isRefunded",
                  "type": "bool"
                },
                {
                  "internalType": "uint256",
                  "name": "quantity",
                  "type": "uint256"
                },
                {
                  "internalType": "bool",
                  "name": "isRevealed",
                  "type": "bool"
                }
              ],
              "internalType": "struct CompanyLotteries.Ticket[]",
              "name": "winners",
              "type": "tuple[]"
            },
            {
              "components": [
                {
                  "internalType": "uint256",
                  "name": "sticketno",
                  "type": "uint256"
                },
                {
                  "internalType": "uint256",
                  "name": "quantity",
                  "type": "uint256"
                },
                {
                  "internalType": "address",
                  "name": "buyer",
                  "type": "address"
                }
              ],
              "internalType": "struct CompanyLotteries.Purchase[]",
              "name": "purchases",
              "type": "tuple[]"
            }
          ],
          "internalType": "struct CompanyLotteries.LotteryStatus",
          "name": "status",
          "type": "tuple"
        }
      ],
      "stateMutability": "view",
      "type": "function"
    },
    {
      "inputs": [],
      "name": "lotteryCount",
      "outputs": [
        {
          "internalType": "uint256",
          "name": "",
          "type": "uint256"
        }
      ],
      "stateMutability": "view",
      "type": "function"
    },
    {
      "inputs": [],
      "name": "owner",
      "outputs": [
        {
          "internalType": "address",
          "name": "",
          "type": "address"
        }
      ],
      "stateMutability": "view",
      "type": "function"
    },
    {
      "inputs": [],
      "name": "paymentToken",
      "outputs": [
        {
          "internalType": "contract IERC20",
          "name": "",
          "type": "address"
        }
      ],
      "stateMutability": "view",
      "type": "function"
    },
    {
      "inputs": [],
      "name": "renounceOwnership",
      "outputs": [],
      "stateMutability": "nonpayable",
      "type": "function"
    },
    {
      "inputs": [
        {
          "internalType": "uint256",
          "name": "lottery_no",
          "type": "uint256"
        },
        {
          "internalType": "uint256",
          "name": "sticketno",
          "type": "uint256"
        },
        {
          "internalType": "uint256",
          "name": "quantity",
          "type": "uint256"
        },
        {
          "internalType": "uint256",
          "name": "rnd_number",
          "type": "uint256"
        }
      ],
      "name": "revealRndNumberTx",
      "outputs": [],
      "stateMutability": "nonpayable",
      "type": "function"
    },
    {
      "inputs": [
        {
          "internalType": "address",
          "name": "erctokenaddr",
          "type": "address"
        }
      ],
      "name": "setPaymentToken",
      "outputs": [],
      "stateMutability": "nonpayable",
      "type": "function"
    },
    {
      "inputs": [
        {
          "internalType": "address",
          "name": "newOwner",
          "type": "address"
        }
      ],
      "name": "transferOwnership",
      "outputs": [],
      "stateMutability": "nonpayable",
      "type": "function"
    },
    {
      "inputs": [
        {
          "internalType": "uint256",
          "name": "lottery_no",
          "type": "uint256"
        }
      ],
      "name": "withdrawTicketProceeds",
      "outputs": [],
      "stateMutability": "nonpayable",
      "type": "function"
    },
    {
      "inputs": [
        {
          "internalType": "uint256",
          "name": "lottery_no",
          "type": "uint256"
        },
        {
          "internalType": "uint256",
          "name": "sticket_no",
          "type": "uint256"
        }
      ],
      "name": "withdrawTicketRefund",
      "outputs": [],
      "stateMutability": "nonpayable",
      "type": "function"
    }
  ],
  "bytecode": "0x608060405234801561001057600080fd5b5033600073ffffffffffffffffffffffffffffffffffffffff168173ffffffffffffffffffffffffffffffffffffffff16036100845760006040517f1e4fbdf700000000000000000000000000000000000000000000000000000000815260040161007b919061019e565b60405180910390fd5b6100938161009960201b60201c565b506101b9565b60008060009054906101000a900473ffffffffffffffffffffffffffffffffffffffff169050816000806101000a81548173ffffffffffffffffffffffffffffffffffffffff021916908373ffffffffffffffffffffffffffffffffffffffff1602179055508173ffffffffffffffffffffffffffffffffffffffff168173ffffffffffffffffffffffffffffffffffffffff167f8be0079c531659141344cd1fd0a4f28419497f9722a3daafe3b4186f6b6457e060405160405180910390a35050565b600073ffffffffffffffffffffffffffffffffffffffff82169050919050565b60006101888261015d565b9050919050565b6101988161017d565b82525050565b60006020820190506101b3600083018461018f565b92915050565b614c1e806101c86000396000f3fe608060405234801561001057600080fd5b50600436106101585760003560e01c80638da5cb5b116100c3578063cc42a7c51161007c578063cc42a7c514610405578063cdc2aebf14610435578063dc969f2214610465578063e0767cd914610496578063e54778b5146104c6578063f2fde38b146104f657610158565b80638da5cb5b146103315780639065c3351461034f578063ad943d1e1461036b578063adc51cdb14610387578063bc2be1be146103b7578063c6f6d9d9146103e757610158565b8063687e47d811610115578063687e47d81461025a5780636a326ab114610276578063715018a61461029257806376b3c8a81461029c5780637df858db146102d057806389b2acbc1461030057610158565b806312b349d51461015d5780631398e0761461018d5780633013ce29146101be5780635b7b3d58146101dc5780635bddbaac146101fa5780635c4437a91461022a575b600080fd5b61017760048036038101906101729190613058565b610512565b60405161018491906130b3565b60405180910390f35b6101a760048036038101906101a291906130ce565b610758565b6040516101b59291906135f3565b60405180910390f35b6101c6610cd2565b6040516101d39190613639565b60405180910390f35b6101e4610cf8565b6040516101f19190613663565b60405180910390f35b610214600480360381019061020f91906136aa565b610d02565b60405161022191906130b3565b60405180910390f35b610244600480360381019061023f91906130ce565b610f49565b604051610251919061370c565b60405180910390f35b610274600480360381019061026f9190613058565b610f7b565b005b610290600480360381019061028b9190613727565b6113ad565b005b61029a611468565b005b6102b660048036038101906102b191906130ce565b61147c565b6040516102c7959493929190613754565b60405180910390f35b6102ea60048036038101906102e59190613908565b61151c565b6040516102f79190613663565b60405180910390f35b61031a60048036038101906103159190613058565b61172b565b6040516103289291906139c6565b60405180910390f35b610339611841565b60405161034691906139fe565b60405180910390f35b61036960048036038101906103649190613a19565b61186a565b005b610385600480360381019061038091906130ce565b611de6565b005b6103a1600480360381019061039c91906130ce565b611ff2565b6040516103ae9190613663565b60405180910390f35b6103d160048036038101906103cc91906130ce565b61205d565b6040516103de9190613663565b60405180910390f35b6103ef6120c5565b6040516103fc9190613663565b60405180910390f35b61041f600480360381019061041a91906130ce565b6120cb565b60405161042c9190613663565b60405180910390f35b61044f600480360381019061044a91906130ce565b612133565b60405161045c91906139fe565b60405180910390f35b61047f600480360381019061047a91906130ce565b612176565b60405161048d929190613aca565b60405180910390f35b6104b060048036038101906104ab9190613afa565b61227b565b6040516104bd9190613663565b60405180910390f35b6104e060048036038101906104db9190613058565b6127c3565b6040516104ed9190613663565b60405180910390f35b610510600480360381019061050b9190613727565b612983565b005b6000600254831115610559576040517f08c379a000000000000000000000000000000000000000000000000000000000815260040161055090613b99565b60405180910390fd5b60008210158015610583575060036000848152602001908152602001600020600001600201548211155b6105c2576040517f08c379a00000000000000000000000000000000000000000000000000000000081526004016105b990613c05565b60405180910390fd5b600360008481526020019081526020016000206000016001015442101561061e576040517f08c379a000000000000000000000000000000000000000000000000000000000815260040161061590613c71565b60405180910390fd5b60006003600085815260200190815260200160002090508060090160000160009054906101000a900460ff161561068a576040517f08c379a000000000000000000000000000000000000000000000000000000000815260040161068190613cdd565b60405180910390fd5b60005b816009016005018054905081101561074b5760008260090160050182815481106106ba576106b9613cfd565b5b9060005260206000209060060201905080600101548514801561072c57503373ffffffffffffffffffffffffffffffffffffffff168160000160009054906101000a900473ffffffffffffffffffffffffffffffffffffffff1673ffffffffffffffffffffffffffffffffffffffff16145b1561073d5760019350505050610752565b50808060010191505061068d565b5060009150505b92915050565b600360205280600052604060002060009150905080600001604051806101200160405290816000820154815260200160018201548152602001600282015481526020016003820154815260200160048201548152602001600582015481526020016006820160009054906101000a900473ffffffffffffffffffffffffffffffffffffffff1673ffffffffffffffffffffffffffffffffffffffff1673ffffffffffffffffffffffffffffffffffffffff1681526020016007820154815260200160088201805461082890613d5b565b80601f016020809104026020016040519081016040528092919081815260200182805461085490613d5b565b80156108a15780601f10610876576101008083540402835291602001916108a1565b820191906000526020600020905b81548152906001019060200180831161088457829003601f168201915b50505050508152505090806009016040518060e00160405290816000820160009054906101000a900460ff16151515158152602001600182015481526020016002820154815260200160038201805480602002602001604051908101604052809291908181526020016000905b828210156109ea57838290600052602060002090600602016040518060c00160405290816000820160009054906101000a900473ffffffffffffffffffffffffffffffffffffffff1673ffffffffffffffffffffffffffffffffffffffff1673ffffffffffffffffffffffffffffffffffffffff16815260200160018201548152602001600282015481526020016003820160009054906101000a900460ff16151515158152602001600482015481526020016005820160009054906101000a900460ff1615151515815250508152602001906001019061090e565b50505050815260200160048201805480602002602001604051908101604052809291908181526020016000905b82821015610af357838290600052602060002090600602016040518060c00160405290816000820160009054906101000a900473ffffffffffffffffffffffffffffffffffffffff1673ffffffffffffffffffffffffffffffffffffffff1673ffffffffffffffffffffffffffffffffffffffff16815260200160018201548152602001600282015481526020016003820160009054906101000a900460ff16151515158152602001600482015481526020016005820160009054906101000a900460ff16151515158152505081526020019060010190610a17565b50505050815260200160058201805480602002602001604051908101604052809291908181526020016000905b82821015610bfc57838290600052602060002090600602016040518060c00160405290816000820160009054906101000a900473ffffffffffffffffffffffffffffffffffffffff1673ffffffffffffffffffffffffffffffffffffffff1673ffffffffffffffffffffffffffffffffffffffff16815260200160018201548152602001600282015481526020016003820160009054906101000a900460ff16151515158152602001600482015481526020016005820160009054906101000a900460ff16151515158152505081526020019060010190610b20565b50505050815260200160068201805480602002602001604051908101604052809291908181526020016000905b82821015610cc5578382906000526020600020906003020160405180606001604052908160008201548152602001600182015481526020016002820160009054906101000a900473ffffffffffffffffffffffffffffffffffffffff1673ffffffffffffffffffffffffffffffffffffffff1673ffffffffffffffffffffffffffffffffffffffff168152505081526020019060010190610c29565b5050505081525050905082565b600160009054906101000a900473ffffffffffffffffffffffffffffffffffffffff1681565b6000600254905090565b6000600254831115610d49576040517f08c379a0000000000000000000000000000000000000000000000000000000008152600401610d4090613b99565b60405180910390fd5b60008210158015610d73575060036000848152602001908152602001600020600001600201548211155b610db2576040517f08c379a0000000000000000000000000000000000000000000000000000000008152600401610da990613c05565b60405180910390fd5b6003600084815260200190815260200160002060000160010154421015610e0e576040517f08c379a0000000000000000000000000000000000000000000000000000000008152600401610e0590613c71565b60405180910390fd5b60006003600085815260200190815260200160002090508060090160000160009054906101000a900460ff1615610e7a576040517f08c379a0000000000000000000000000000000000000000000000000000000008152600401610e7190613cdd565b60405180910390fd5b60005b8160090160050180549050811015610f3b576000826009016005018281548110610eaa57610ea9613cfd565b5b90600052602060002090600602019050806001015485148015610f1c57508673ffffffffffffffffffffffffffffffffffffffff168160000160009054906101000a900473ffffffffffffffffffffffffffffffffffffffff1673ffffffffffffffffffffffffffffffffffffffff16145b15610f2d5760019350505050610f42565b508080600101915050610e7d565b5060009150505b9392505050565b60003382604051602001610f5e929190613df5565b604051602081830303815290604052805190602001209050919050565b600254821115610fc0576040517f08c379a0000000000000000000000000000000000000000000000000000000008152600401610fb790613b99565b60405180910390fd5b60006003600084815260200190815260200160002090506003600084815260200190815260200160002060090160000160009054906101000a900460ff1661103d576040517f08c379a000000000000000000000000000000000000000000000000000000000815260040161103490613e6d565b60405180910390fd5b6003600084815260200190815260200160002060000160010154421015611099576040517f08c379a000000000000000000000000000000000000000000000000000000000815260040161109090613c71565b60405180910390fd5b806009016003018054905082106110e5576040517f08c379a00000000000000000000000000000000000000000000000000000000081526004016110dc90613c05565b60405180910390fd5b806000016001015442101561112f576040517f08c379a000000000000000000000000000000000000000000000000000000000815260040161112690613c71565b60405180910390fd5b600081600901600301838154811061114a57611149613cfd565b5b906000526020600020906006020190503373ffffffffffffffffffffffffffffffffffffffff168160000160009054906101000a900473ffffffffffffffffffffffffffffffffffffffff1673ffffffffffffffffffffffffffffffffffffffff16146111ec576040517f08c379a00000000000000000000000000000000000000000000000000000000081526004016111e390613ed9565b60405180910390fd5b60005b81600401548110156112ab5782600901600301818561120e9190613f28565b8154811061121f5761121e613cfd565b5b906000526020600020906006020191508160030160009054906101000a900460ff1615611281576040517f08c379a000000000000000000000000000000000000000000000000000000000815260040161127890613fa8565b60405180910390fd5b60018260030160006101000a81548160ff02191690831515021790555080806001019150506111ef565b506000826000016005015482600401546112c59190613fc8565b9050600160009054906101000a900473ffffffffffffffffffffffffffffffffffffffff1673ffffffffffffffffffffffffffffffffffffffff1663a9059cbb33836040518363ffffffff1660e01b815260040161132492919061400a565b6020604051808303816000875af1158015611343573d6000803e3d6000fd5b505050506040513d601f19601f82011682018060405250810190611367919061405f565b6113a6576040517f08c379a000000000000000000000000000000000000000000000000000000000815260040161139d906140d8565b60405180910390fd5b5050505050565b6113b5612a09565b600073ffffffffffffffffffffffffffffffffffffffff168173ffffffffffffffffffffffffffffffffffffffff1603611424576040517f08c379a000000000000000000000000000000000000000000000000000000000815260040161141b90614144565b60405180910390fd5b80600160006101000a81548173ffffffffffffffffffffffffffffffffffffffff021916908373ffffffffffffffffffffffffffffffffffffffff16021790555050565b611470612a09565b61147a6000612a90565b565b60008060008060006002548611156114c9576040517f08c379a00000000000000000000000000000000000000000000000000000000081526004016114c090613b99565b60405180910390fd5b600060036000888152602001908152602001600020905080600001600001548160000160020154826000016003015483600001600401548460000160050154955095509550955095505091939590929450565b6000611526612a09565b428811611568576040517f08c379a000000000000000000000000000000000000000000000000000000000815260040161155f906141b0565b60405180910390fd5b6000851015801561157a575060648511155b6115b9576040517f08c379a00000000000000000000000000000000000000000000000000000000081526004016115b090614242565b60405180910390fd5b6002600081546115c890614262565b91905081905590506000600360008381526020019081526020016000209050428160000160000181905550888160000160010181905550878160000160020181905550868160000160030181905550858160000160040181905550848160000160050181905550600160009054906101000a900473ffffffffffffffffffffffffffffffffffffffff168160000160060160006101000a81548173ffffffffffffffffffffffffffffffffffffffff021916908373ffffffffffffffffffffffffffffffffffffffff160217905550838160000160070181905550828160000160080190816116b7919061444c565b5060018160090160000160006101000a81548160ff0219169083151502179055506000816009016001018190555060008160090160020181905550817f9e0023bebcc752baaa41057318405b5a6a8e9c6372b519717cfdf238e5caa79560405160405180910390a250979650505050505050565b60008060008411801561176557506003600084815260200190815260200160002060090160030180549050600185611763919061451e565b105b6117a4576040517f08c379a000000000000000000000000000000000000000000000000000000000815260040161179b9061459e565b60405180910390fd5b600360008481526020019081526020016000206009016006016001856117ca919061451e565b815481106117db576117da613cfd565b5b90600052602060002090600302016000015460036000858152602001908152602001600020600901600601600186611813919061451e565b8154811061182457611823613cfd565b5b906000526020600020906003020160010154915091509250929050565b60008060009054906101000a900473ffffffffffffffffffffffffffffffffffffffff16905090565b6002548411156118af576040517f08c379a00000000000000000000000000000000000000000000000000000000081526004016118a690613b99565b60405180910390fd5b6000600360008681526020019081526020016000209050600042905081600001600001546002836000016000015484600001600101546118ef919061451e565b6118f991906145ed565b6119039190613f28565b811015611945576040517f08c379a000000000000000000000000000000000000000000000000000000000815260040161193c9061466a565b60405180910390fd5b8160000160010154811061198e576040517f08c379a0000000000000000000000000000000000000000000000000000000008152600401611985906146d6565b60405180910390fd5b600015158260090160030186815481106119ab576119aa613cfd565b5b906000526020600020906006020160050160009054906101000a900460ff16151514611a0c576040517f08c379a0000000000000000000000000000000000000000000000000000000008152600401611a0390614742565b60405180910390fd5b8160000160040154826000016002015460648460090160010154611a309190613fc8565b611a3a91906145ed565b1015611a7b576040517f08c379a0000000000000000000000000000000000000000000000000000000008152600401611a7290613cdd565b60405180910390fd5b6000826009016003018681548110611a9657611a95613cfd565b5b906000526020600020906006020190503373ffffffffffffffffffffffffffffffffffffffff168160000160009054906101000a900473ffffffffffffffffffffffffffffffffffffffff1673ffffffffffffffffffffffffffffffffffffffff1614611b38576040517f08c379a0000000000000000000000000000000000000000000000000000000008152600401611b2f90613ed9565b60405180910390fd5b84816004015414611b7e576040517f08c379a0000000000000000000000000000000000000000000000000000000008152600401611b75906147ae565b60405180910390fd5b3384604051602001611b91929190613df5565b60405160208183030381529060405280519060200120816002015414611bec576040517f08c379a0000000000000000000000000000000000000000000000000000000008152600401611be39061481a565b60405180910390fd5b60005b85811015611d6757836009016003018188611c0a9190613f28565b81548110611c1b57611c1a613cfd565b5b90600052602060002090600602019150836009016004018290806001815401808255809150506001900390600052602060002090600602016000909190919091506000820160009054906101000a900473ffffffffffffffffffffffffffffffffffffffff168160000160006101000a81548173ffffffffffffffffffffffffffffffffffffffff021916908373ffffffffffffffffffffffffffffffffffffffff16021790555060018201548160010155600282015481600201556003820160009054906101000a900460ff168160030160006101000a81548160ff021916908315150217905550600482015481600401556005820160009054906101000a900460ff168160050160006101000a81548160ff021916908315150217905550505060018260050160006101000a81548160ff0219169083151502179055508080600101915050611bef565b50838360090160020160008282541892505081905550606483600001600201548460000160040154611d999190613fc8565b611da391906145ed565b836009016004018054905010611ddd5760008360090160000160006101000a81548160ff021916908315150217905550611ddc87612b54565b5b50505050505050565b611dee612a09565b600254811115611e33576040517f08c379a0000000000000000000000000000000000000000000000000000000008152600401611e2a90613b99565b60405180910390fd5b60006003600083815260200190815260200160002090508060000160010154421015611e94576040517f08c379a0000000000000000000000000000000000000000000000000000000008152600401611e8b90613c71565b60405180910390fd5b8060090160000160009054906101000a900460ff1615611ee9576040517f08c379a0000000000000000000000000000000000000000000000000000000008152600401611ee090613cdd565b60405180910390fd5b600081600001600501548260090160010154611f059190613fc8565b9050600160009054906101000a900473ffffffffffffffffffffffffffffffffffffffff1673ffffffffffffffffffffffffffffffffffffffff1663a9059cbb611f4d611841565b836040518363ffffffff1660e01b8152600401611f6b92919061400a565b6020604051808303816000875af1158015611f8a573d6000803e3d6000fd5b505050506040513d601f19601f82011682018060405250810190611fae919061405f565b611fed576040517f08c379a0000000000000000000000000000000000000000000000000000000008152600401611fe490614886565b60405180910390fd5b505050565b6000600254821115612039576040517f08c379a000000000000000000000000000000000000000000000000000000000815260040161203090613b99565b60405180910390fd5b60036000838152602001908152602001600020600901600601805490509050919050565b60006002548211156120a4576040517f08c379a000000000000000000000000000000000000000000000000000000000815260040161209b90613b99565b60405180910390fd5b60036000838152602001908152602001600020600001600001549050919050565b60025481565b6000600254821115612112576040517f08c379a000000000000000000000000000000000000000000000000000000000815260040161210990613b99565b60405180910390fd5b60036000838152602001908152602001600020600901600101549050919050565b60006003600083815260200190815260200160002060000160060160009054906101000a900473ffffffffffffffffffffffffffffffffffffffff169050919050565b600060606002548311156121bf576040517f08c379a00000000000000000000000000000000000000000000000000000000081526004016121b690613b99565b60405180910390fd5b60006003600085815260200190815260200160002090508060000160070154816000016008018080546121f190613d5b565b80601f016020809104026020016040519081016040528092919081815260200182805461221d90613d5b565b801561226a5780601f1061223f5761010080835404028352916020019161226a565b820191906000526020600020905b81548152906001019060200180831161224d57829003601f168201915b505050505090509250925050915091565b60006002548411156122c2576040517f08c379a00000000000000000000000000000000000000000000000000000000081526004016122b990613b99565b60405180910390fd5b600060036000868152602001908152602001600020905080600001600101544210612322576040517f08c379a0000000000000000000000000000000000000000000000000000000008152600401612319906146d6565b60405180910390fd5b806000016002015484826009016001015461233d9190613f28565b111561237e576040517f08c379a0000000000000000000000000000000000000000000000000000000008152600401612375906148f2565b60405180910390fd5b60008411801561238f5750601e8411155b6123ce576040517f08c379a00000000000000000000000000000000000000000000000000000000081526004016123c59061495e565b60405180910390fd5b80600001600001546002826000016000015483600001600101546123f2919061451e565b6123fc91906145ed565b6124069190613f28565b4210612447576040517f08c379a000000000000000000000000000000000000000000000000000000000815260040161243e906149ca565b60405180910390fd5b600084826000016005015461245c9190613fc8565b9050600160009054906101000a900473ffffffffffffffffffffffffffffffffffffffff1673ffffffffffffffffffffffffffffffffffffffff166323b872dd3330846040518463ffffffff1660e01b81526004016124bd939291906149ea565b6020604051808303816000875af11580156124dc573d6000803e3d6000fd5b505050506040513d601f19601f82011682018060405250810190612500919061405f565b61253f576040517f08c379a000000000000000000000000000000000000000000000000000000000815260040161253690614a6d565b60405180910390fd5b8160090160010154925060005b8581101561268c57826009016003016040518060c001604052803373ffffffffffffffffffffffffffffffffffffffff168152602001838761258e9190613f28565b815260200187815260200160001515815260200188815260200160001515815250908060018154018082558091505060019003906000526020600020906006020160009091909190915060008201518160000160006101000a81548173ffffffffffffffffffffffffffffffffffffffff021916908373ffffffffffffffffffffffffffffffffffffffff160217905550602082015181600101556040820151816002015560608201518160030160006101000a81548160ff0219169083151502179055506080820151816004015560a08201518160050160006101000a81548160ff0219169083151502179055505050808060010191505061254c565b508160090160060160405180606001604052808581526020018781526020013373ffffffffffffffffffffffffffffffffffffffff168152509080600181540180825580915050600190039060005260206000209060030201600090919091909150600082015181600001556020820151816001015560408201518160020160006101000a81548173ffffffffffffffffffffffffffffffffffffffff021916908373ffffffffffffffffffffffffffffffffffffffff1602179055505050848260090160010160008282546127629190613f28565b925050819055503373ffffffffffffffffffffffffffffffffffffffff16867fc3b7539e996dc1d1252af1e3c72474162b7a9c7cc7411ca8905732eaf6fff32885886040516127b29291906139c6565b60405180910390a350509392505050565b600060025483111561280a576040517f08c379a000000000000000000000000000000000000000000000000000000000815260040161280190613b99565b60405180910390fd5b6003600084815260200190815260200160002060000160010154421015612866576040517f08c379a000000000000000000000000000000000000000000000000000000000815260040161285d90613c71565b60405180910390fd5b60006003600085815260200190815260200160002090508060090160000160009054906101000a900460ff16156128d2576040517f08c379a00000000000000000000000000000000000000000000000000000000081526004016128c990613cdd565b60405180910390fd5b6003600085815260200190815260200160002060090160050180549050831115612931576040517f08c379a000000000000000000000000000000000000000000000000000000000815260040161292890614ad9565b60405180910390fd5b60036000858152602001908152602001600020600901600501600184612957919061451e565b8154811061296857612967613cfd565b5b90600052602060002090600602016001015491505092915050565b61298b612a09565b600073ffffffffffffffffffffffffffffffffffffffff168173ffffffffffffffffffffffffffffffffffffffff16036129fd5760006040517f1e4fbdf70000000000000000000000000000000000000000000000000000000081526004016129f491906139fe565b60405180910390fd5b612a0681612a90565b50565b612a11612f64565b73ffffffffffffffffffffffffffffffffffffffff16612a2f611841565b73ffffffffffffffffffffffffffffffffffffffff1614612a8e57612a52612f64565b6040517f118cdaa7000000000000000000000000000000000000000000000000000000008152600401612a8591906139fe565b60405180910390fd5b565b60008060009054906101000a900473ffffffffffffffffffffffffffffffffffffffff169050816000806101000a81548173ffffffffffffffffffffffffffffffffffffffff021916908373ffffffffffffffffffffffffffffffffffffffff1602179055508173ffffffffffffffffffffffffffffffffffffffff168173ffffffffffffffffffffffffffffffffffffffff167f8be0079c531659141344cd1fd0a4f28419497f9722a3daafe3b4186f6b6457e060405160405180910390a35050565b6003600082815260200190815260200160002060090160000160009054906101000a900460ff1615612bbb576040517f08c379a0000000000000000000000000000000000000000000000000000000008152600401612bb290613cdd565b60405180910390fd5b600254811115612c00576040517f08c379a0000000000000000000000000000000000000000000000000000000008152600401612bf790613b99565b60405180910390fd5b6000600360008381526020019081526020016000206009016004018054905011612c5f576040517f08c379a0000000000000000000000000000000000000000000000000000000008152600401612c5690614b6b565b60405180910390fd5b60006003600083815260200190815260200160002090506000816009016002015490506000826009016005016000612c979190612f6c565b60008360090160040180549050905060005b8460000160030154811015612ed75760008285612cc69190614b8b565b90506000866009016003018281548110612ce357612ce2613cfd565b5b906000526020600020906006020190506000805b8860090160050180549050811015612d54578260010154896009016005018281548110612d2757612d26613cfd565b5b90600052602060002090600602016001015403612d475760019150612d54565b8080600101915050612cf7565b5080612e8957876009016005018290806001815401808255809150506001900390600052602060002090600602016000909190919091506000820160009054906101000a900473ffffffffffffffffffffffffffffffffffffffff168160000160006101000a81548173ffffffffffffffffffffffffffffffffffffffff021916908373ffffffffffffffffffffffffffffffffffffffff16021790555060018201548160010155600282015481600201556003820160009054906101000a900460ff168160030160006101000a81548160ff021916908315150217905550600482015481600401556005820160009054906101000a900460ff168160050160006101000a81548160ff02191690831515021790555050508580612e7790614262565b9650508380612e8590614262565b9450505b8684604051602001612e9c929190614bbc565b6040516020818303038152906040528051906020012060001c8718965087600001600301548610612ecf57505050612ed7565b505050612ca9565b5060005b8460090160050180549050811015612f5c57857f7911f1d1491a1f50a006758f6120f06fa001c8b195197e744c098032c79b9a24866009016005018381548110612f2857612f27613cfd565b5b906000526020600020906006020160010154604051612f479190613663565b60405180910390a28080600101915050612edb565b505050505050565b600033905090565b5080546000825560060290600052602060002090810190612f8d9190612f90565b50565b5b8082111561300a57600080820160006101000a81549073ffffffffffffffffffffffffffffffffffffffff0219169055600182016000905560028201600090556003820160006101000a81549060ff021916905560048201600090556005820160006101000a81549060ff021916905550600601612f91565b5090565b6000604051905090565b600080fd5b600080fd5b6000819050919050565b61303581613022565b811461304057600080fd5b50565b6000813590506130528161302c565b92915050565b6000806040838503121561306f5761306e613018565b5b600061307d85828601613043565b925050602061308e85828601613043565b9150509250929050565b60008115159050919050565b6130ad81613098565b82525050565b60006020820190506130c860008301846130a4565b92915050565b6000602082840312156130e4576130e3613018565b5b60006130f284828501613043565b91505092915050565b61310481613022565b82525050565b600073ffffffffffffffffffffffffffffffffffffffff82169050919050565b6000819050919050565b600061314f61314a6131458461310a565b61312a565b61310a565b9050919050565b600061316182613134565b9050919050565b600061317382613156565b9050919050565b61318381613168565b82525050565b6000819050919050565b61319c81613189565b82525050565b600081519050919050565b600082825260208201905092915050565b60005b838110156131dc5780820151818401526020810190506131c1565b60008484015250505050565b6000601f19601f8301169050919050565b6000613204826131a2565b61320e81856131ad565b935061321e8185602086016131be565b613227816131e8565b840191505092915050565b60006101208301600083015161324b60008601826130fb565b50602083015161325e60208601826130fb565b50604083015161327160408601826130fb565b50606083015161328460608601826130fb565b50608083015161329760808601826130fb565b5060a08301516132aa60a08601826130fb565b5060c08301516132bd60c086018261317a565b5060e08301516132d060e0860182613193565b506101008301518482036101008601526132ea82826131f9565b9150508091505092915050565b61330081613098565b82525050565b600081519050919050565b600082825260208201905092915050565b6000819050602082019050919050565b600061333d8261310a565b9050919050565b61334d81613332565b82525050565b60c0820160008201516133696000850182613344565b50602082015161337c60208501826130fb565b50604082015161338f6040850182613193565b5060608201516133a260608501826132f7565b5060808201516133b560808501826130fb565b5060a08201516133c860a08501826132f7565b50505050565b60006133da8383613353565b60c08301905092915050565b6000602082019050919050565b60006133fe82613306565b6134088185613311565b935061341383613322565b8060005b8381101561344457815161342b88826133ce565b9750613436836133e6565b925050600181019050613417565b5085935050505092915050565b600081519050919050565b600082825260208201905092915050565b6000819050602082019050919050565b60608201600082015161349360008501826130fb565b5060208201516134a660208501826130fb565b5060408201516134b96040850182613344565b50505050565b60006134cb838361347d565b60608301905092915050565b6000602082019050919050565b60006134ef82613451565b6134f9818561345c565b93506135048361346d565b8060005b8381101561353557815161351c88826134bf565b9750613527836134d7565b925050600181019050613508565b5085935050505092915050565b600060e08301600083015161355a60008601826132f7565b50602083015161356d60208601826130fb565b50604083015161358060408601826130fb565b506060830151848203606086015261359882826133f3565b915050608083015184820360808601526135b282826133f3565b91505060a083015184820360a08601526135cc82826133f3565b91505060c083015184820360c08601526135e682826134e4565b9150508091505092915050565b6000604082019050818103600083015261360d8185613232565b905081810360208301526136218184613542565b90509392505050565b61363381613168565b82525050565b600060208201905061364e600083018461362a565b92915050565b61365d81613022565b82525050565b60006020820190506136786000830184613654565b92915050565b61368781613332565b811461369257600080fd5b50565b6000813590506136a48161367e565b92915050565b6000806000606084860312156136c3576136c2613018565b5b60006136d186828701613695565b93505060206136e286828701613043565b92505060406136f386828701613043565b9150509250925092565b61370681613189565b82525050565b600060208201905061372160008301846136fd565b92915050565b60006020828403121561373d5761373c613018565b5b600061374b84828501613695565b91505092915050565b600060a0820190506137696000830188613654565b6137766020830187613654565b6137836040830186613654565b6137906060830185613654565b61379d6080830184613654565b9695505050505050565b6137b081613189565b81146137bb57600080fd5b50565b6000813590506137cd816137a7565b92915050565b600080fd5b600080fd5b7f4e487b7100000000000000000000000000000000000000000000000000000000600052604160045260246000fd5b613815826131e8565b810181811067ffffffffffffffff82111715613834576138336137dd565b5b80604052505050565b600061384761300e565b9050613853828261380c565b919050565b600067ffffffffffffffff821115613873576138726137dd565b5b61387c826131e8565b9050602081019050919050565b82818337600083830152505050565b60006138ab6138a684613858565b61383d565b9050828152602081018484840111156138c7576138c66137d8565b5b6138d2848285613889565b509392505050565b600082601f8301126138ef576138ee6137d3565b5b81356138ff848260208601613898565b91505092915050565b600080600080600080600060e0888a03121561392757613926613018565b5b60006139358a828b01613043565b97505060206139468a828b01613043565b96505060406139578a828b01613043565b95505060606139688a828b01613043565b94505060806139798a828b01613043565b93505060a061398a8a828b016137be565b92505060c088013567ffffffffffffffff8111156139ab576139aa61301d565b5b6139b78a828b016138da565b91505092959891949750929550565b60006040820190506139db6000830185613654565b6139e86020830184613654565b9392505050565b6139f881613332565b82525050565b6000602082019050613a1360008301846139ef565b92915050565b60008060008060808587031215613a3357613a32613018565b5b6000613a4187828801613043565b9450506020613a5287828801613043565b9350506040613a6387828801613043565b9250506060613a7487828801613043565b91505092959194509250565b600082825260208201905092915050565b6000613a9c826131a2565b613aa68185613a80565b9350613ab68185602086016131be565b613abf816131e8565b840191505092915050565b6000604082019050613adf60008301856136fd565b8181036020830152613af18184613a91565b90509392505050565b600080600060608486031215613b1357613b12613018565b5b6000613b2186828701613043565b9350506020613b3286828701613043565b9250506040613b43868287016137be565b9150509250925092565b7f496e76616c6964206c6f7474657279206e756d62657200000000000000000000600082015250565b6000613b83601683613a80565b9150613b8e82613b4d565b602082019050919050565b60006020820190508181036000830152613bb281613b76565b9050919050565b7f496e76616c6964207469636b6574206e756d6265720000000000000000000000600082015250565b6000613bef601583613a80565b9150613bfa82613bb9565b602082019050919050565b60006020820190508181036000830152613c1e81613be2565b9050919050565b7f4c6f7474657279206e6f7420656e646564000000000000000000000000000000600082015250565b6000613c5b601183613a80565b9150613c6682613c25565b602082019050919050565b60006020820190508181036000830152613c8a81613c4e565b9050919050565b7f4c6f74746572792063616e63656c6c6564000000000000000000000000000000600082015250565b6000613cc7601183613a80565b9150613cd282613c91565b602082019050919050565b60006020820190508181036000830152613cf681613cba565b9050919050565b7f4e487b7100000000000000000000000000000000000000000000000000000000600052603260045260246000fd5b7f4e487b7100000000000000000000000000000000000000000000000000000000600052602260045260246000fd5b60006002820490506001821680613d7357607f821691505b602082108103613d8657613d85613d2c565b5b50919050565b60008160601b9050919050565b6000613da482613d8c565b9050919050565b6000613db682613d99565b9050919050565b613dce613dc982613332565b613dab565b82525050565b6000819050919050565b613def613dea82613022565b613dd4565b82525050565b6000613e018285613dbd565b601482019150613e118284613dde565b6020820191508190509392505050565b7f4c6f7474657279206e6f742063616e63656c6c65640000000000000000000000600082015250565b6000613e57601583613a80565b9150613e6282613e21565b602082019050919050565b60006020820190508181036000830152613e8681613e4a565b9050919050565b7f4e6f74207469636b6574206f776e657200000000000000000000000000000000600082015250565b6000613ec3601083613a80565b9150613ece82613e8d565b602082019050919050565b60006020820190508181036000830152613ef281613eb6565b9050919050565b7f4e487b7100000000000000000000000000000000000000000000000000000000600052601160045260246000fd5b6000613f3382613022565b9150613f3e83613022565b9250828201905080821115613f5657613f55613ef9565b5b92915050565b7f5469636b657420616c726561647920726566756e646564000000000000000000600082015250565b6000613f92601783613a80565b9150613f9d82613f5c565b602082019050919050565b60006020820190508181036000830152613fc181613f85565b9050919050565b6000613fd382613022565b9150613fde83613022565b9250828202613fec81613022565b9150828204841483151761400357614002613ef9565b5b5092915050565b600060408201905061401f60008301856139ef565b61402c6020830184613654565b9392505050565b61403c81613098565b811461404757600080fd5b50565b60008151905061405981614033565b92915050565b60006020828403121561407557614074613018565b5b60006140838482850161404a565b91505092915050565b7f526566756e64206661696c656400000000000000000000000000000000000000600082015250565b60006140c2600d83613a80565b91506140cd8261408c565b602082019050919050565b600060208201905081810360008301526140f1816140b5565b9050919050565b7f496e76616c696420746f6b656e20616464726573730000000000000000000000600082015250565b600061412e601583613a80565b9150614139826140f8565b602082019050919050565b6000602082019050818103600083015261415d81614121565b9050919050565b7f456e642074696d65206d75737420626520696e20746865206675747572650000600082015250565b600061419a601e83613a80565b91506141a582614164565b602082019050919050565b600060208201905081810360008301526141c98161418d565b9050919050565b7f4d696e696d756d2070657263656e74616765206d75737420626520626574776560008201527f656e203020616e64203130300000000000000000000000000000000000000000602082015250565b600061422c602c83613a80565b9150614237826141d0565b604082019050919050565b6000602082019050818103600083015261425b8161421f565b9050919050565b600061426d82613022565b91507fffffffffffffffffffffffffffffffffffffffffffffffffffffffffffffffff820361429f5761429e613ef9565b5b600182019050919050565b60008190508160005260206000209050919050565b60006020601f8301049050919050565b600082821b905092915050565b60006008830261430c7fffffffffffffffffffffffffffffffffffffffffffffffffffffffffffffffff826142cf565b61431686836142cf565b95508019841693508086168417925050509392505050565b600061434961434461433f84613022565b61312a565b613022565b9050919050565b6000819050919050565b6143638361432e565b61437761436f82614350565b8484546142dc565b825550505050565b600090565b61438c61437f565b61439781848461435a565b505050565b5b818110156143bb576143b0600082614384565b60018101905061439d565b5050565b601f821115614400576143d1816142aa565b6143da846142bf565b810160208510156143e9578190505b6143fd6143f5856142bf565b83018261439c565b50505b505050565b600082821c905092915050565b600061442360001984600802614405565b1980831691505092915050565b600061443c8383614412565b9150826002028217905092915050565b614455826131a2565b67ffffffffffffffff81111561446e5761446d6137dd565b5b6144788254613d5b565b6144838282856143bf565b600060209050601f8311600181146144b657600084156144a4578287015190505b6144ae8582614430565b865550614516565b601f1984166144c4866142aa565b60005b828110156144ec578489015182556001820191506020850194506020810190506144c7565b868310156145095784890151614505601f891682614412565b8355505b6001600288020188555050505b505050505050565b600061452982613022565b915061453483613022565b925082820390508181111561454c5761454b613ef9565b5b92915050565b7f496e76616c6964207469636b657420696e646578000000000000000000000000600082015250565b6000614588601483613a80565b915061459382614552565b602082019050919050565b600060208201905081810360008301526145b78161457b565b9050919050565b7f4e487b7100000000000000000000000000000000000000000000000000000000600052601260045260246000fd5b60006145f882613022565b915061460383613022565b925082614613576146126145be565b5b828204905092915050565b7f52657665616c20706572696f64206e6f74207374617274656400000000000000600082015250565b6000614654601983613a80565b915061465f8261461e565b602082019050919050565b6000602082019050818103600083015261468381614647565b9050919050565b7f4c6f74746572792068617320656e646564000000000000000000000000000000600082015250565b60006146c0601183613a80565b91506146cb8261468a565b602082019050919050565b600060208201905081810360008301526146ef816146b3565b9050919050565b7f5469636b657420616c72656164792072657665616c6564000000000000000000600082015250565b600061472c601783613a80565b9150614737826146f6565b602082019050919050565b6000602082019050818103600083015261475b8161471f565b9050919050565b7f57726f6e67207175616e74697479000000000000000000000000000000000000600082015250565b6000614798600e83613a80565b91506147a382614762565b602082019050919050565b600060208201905081810360008301526147c78161478b565b9050919050565b7f496e76616c69642072616e646f6d206e756d6265720000000000000000000000600082015250565b6000614804601583613a80565b915061480f826147ce565b602082019050919050565b60006020820190508181036000830152614833816147f7565b9050919050565b7f5769746864726177616c206661696c6564000000000000000000000000000000600082015250565b6000614870601183613a80565b915061487b8261483a565b602082019050919050565b6000602082019050818103600083015261489f81614863565b9050919050565b7f45786365656473207469636b6574206c696d6974000000000000000000000000600082015250565b60006148dc601483613a80565b91506148e7826148a6565b602082019050919050565b6000602082019050818103600083015261490b816148cf565b9050919050565b7f507572636861736520757020746f203330207469636b657473206f6e6c790000600082015250565b6000614948601e83613a80565b915061495382614912565b602082019050919050565b600060208201905081810360008301526149778161493b565b9050919050565b7f427579696e6720706572696f642068617320656e646564000000000000000000600082015250565b60006149b4601783613a80565b91506149bf8261497e565b602082019050919050565b600060208201905081810360008301526149e3816149a7565b9050919050565b60006060820190506149ff60008301866139ef565b614a0c60208301856139ef565b614a196040830184613654565b949350505050565b7f5061796d656e74206661696c6564000000000000000000000000000000000000600082015250565b6000614a57600e83613a80565b9150614a6282614a21565b602082019050919050565b60006020820190508181036000830152614a8681614a4a565b9050919050565b7f496e76616c69642077696e6e657220696e646578000000000000000000000000600082015250565b6000614ac3601483613a80565b9150614ace82614a8d565b602082019050919050565b60006020820190508181036000830152614af281614ab6565b9050919050565b7f4e6f206f6e65206861732072657665616c65642074686569722072616e646f6d60008201527f206e756d62657273000000000000000000000000000000000000000000000000602082015250565b6000614b55602883613a80565b9150614b6082614af9565b604082019050919050565b60006020820190508181036000830152614b8481614b48565b9050919050565b6000614b9682613022565b9150614ba183613022565b925082614bb157614bb06145be565b5b828206905092915050565b6000614bc88285613dde565b602082019150614bd88284613dde565b602082019150819050939250505056fea2646970667358221220440000b5f3a9a6a19d744b68d66a7b94ddfedf97a4b3c5adc1fa6d82f0430f4f64736f6c634300081c0033",
  "linkReferences": {},
  "deployedLinkReferences": {}
}